:020000040800F2
:100000000050002071020008590200085B0200083D
:100010005D0200085F0200086102000800000000A5
:100020000000000000000000000000006302000863
:10003000650200080000000067020008690200086D
:10004000B9020008B9020008B9020008B9020008A4
:10005000B9020008B9020008B9020008B902000894
:10006000B9020008B9020008B9020008B902000884
:10007000B9020008B9020008B9020008B902000874
:10008000B9020008B9020008B9020008B902000864
:10009000B9020008B9020008B9020008B902000854
:1000A000B9020008B9020008B9020008B902000844
:1000B000B9020008B9020008B9020008B902000834
:1000C000B9020008B9020008B9020008B902000824
:1000D000B9020008B9020008B9020008B902000814
:1000E000B9020008B9020008B902000800000000C7
:1000F0000000000000000000000000000000000000
:0C01000000000000000000005FF808F1A3
:10010C0010B5054C237833B9044B13B10448AFF345
:10011C0000800123237010BD0C00002000000000A3
:10012C00440B000808B5034B1BB103490348AFF35C
:10013C00008008BD0000000010000020440B0008E7
:10014C00202210B590B000210DEB020000F0ECFC69
:10015C000021142201A800F0E7FC01244FF48033A5
:10016C0006A8CDE9064300F047FA014608B172B67D
:10017C00FEE70F23CDE90300059001A8CDE901347A
:10018C0000F012FC08B172B6FEE710B010BD000012
:10019C007FB500F0B1F8FFF7D3FF1022002102A8C1
:1001AC0000F0C2FC164B01219A69164842F020025D
:1001BC009A619A69134C02F020020092009A9A6993
:1001CC0042F004029A619B69002203F0040301933C
:1001DC00019B00F003FA01230022CDE90233022334
:1001EC0002A90848CDE9042300F018F920460121A2
:1001FC0000F0F9F94FF47A7000F0A2F8F6E700BFBE
:10020C0000100240000801400E4B82B09A6942F087
:10021C0001029A619A6902F001020092009ADA696D
:10022C0042F08052DA61DB69074A03F08053019394
:10023C00019B536823F0E06343F08063536002B08A
:10024C00704700BF0010024000000140FEE7FEE7CF
:10025C00FEE7FEE7FEE770477047704700F05EB8B8
:10026C0070470000002103E00B4B5B5843500431F6
:10027C000A480B4B42189A42F6D30A4A02E0002372
:10028C0042F8043B084B9A42F9D3FFF7E9FF00F020
:10029C0027FCFFF77DFF7047840B0008000000204F
:1002AC000C0000200C0000202C000020FEE70000B9
:1002BC0038B50E4B054618784FF47A73B3FBF0F350
:1002CC000B4A1068B0FBF3F000F092F8044658B9F2
:1002DC000F2D09D8024629464FF0FF3000F054F894
:1002EC002046044B1D6038BD0120FCE704000020B3
:1002FC000000002008000020074A08B513680320FE
:10030C0043F01003136000F02DF80020FFF7D0FF2E
:10031C00FFF77AFF002008BD00200240034A044B7F
:10032C0011681B780B441360704700BF2800002035
:10033C0004000020014B1868704700BF2800002003
:10034C0038B50446FFF7F6FF0546631C1EBF044B89
:10035C001B78E418FFF7EEFF401BA042FAD338BD20
:10036C0004000020074A0002D36800F4E06023F484
:10037C00E0631B041B0C43F0BF6343F400330343E3
:10038C00D360704700ED00E0174B70B5DC684FF0A0
:10039C00FF36C4F30224C4F10705042D04F1040351
:1003AC0028BF0425062B98BF002406FA05F388BF46
:1003BC00033C21EA0303A34006FA04F422EA0404F2
:1003CC00002843EA0403A8BF00F160404FEA03137E
:1003DC00B8BF064ADBB2ABBF00F5614000F00F00BE
:1003EC0080F80033135470BD00ED00E014ED00E014
:1003FC000138B0F1807F0AD2F021064B064A5860D2
:10040C0082F823100020072298601A6070470120A0
:10041C00704700BF10E000E000ED00E02DE9F74F61
:10042C0000242646654BDFF8A4C1DFF8A4E10A6876
:10043C0032FA06F502D103B0BDE8F08F4FF0010897
:10044C0008FA06F802EA080290457ED14D68122D92
:10045C0000F0A98000F28280022D00F0A18076D8F5
:10046C00002D00F08880012D00F098804FF00F09CE
:10047C00FF2A93BF824606F18045083DD0F800B0B4
:10048C0092BFB500D0F804B0AD0009FA05F82BEA1C
:10049C00080804FA05F588BF00F1040A48EA0505C6
:1004AC00CAF80050D1F804A01AF0805F4DD0444F28
:1004BC0026F00308BD6908F1804845F00105BD61CF
:1004CC00BD6908F5803805F00105019506F0030BB0
:1004DC00019D4FEA8B0BD8F8085009FA0BF925EA65
:1004EC000909384DA84263D005F58065A84261D052
:1004FC0005F58065A8425FD005F58065A8420CBF64
:10050C000325042505FA0BF545EA0905C8F808503A
:10051C001D681AF4803F14BF154395431D605D6838
:10052C001AF4003F14BF154395435D609D681AF49F
:10053C00801F14BF154395439D60DD681AF4001F9E
:10054C0014BF2A4325EA0202DA6001366FE7032D55
:10055C0022D0112D8AD1CC68043487E71A4FBD42C2
:10056C0009D012D8DFF86C904D4504D009F58039CC
:10057C004D457FF47BAF8C68C4B1012C0CBFC0F827
:10058C001080C0F81480082470E76545F3D07545D9
:10059C00F1D0DFF84490EBE7002467E7CC6865E71F
:1005AC00CC68083462E7CC680C345FE704245DE760
:1005BC000025A7E70125A5E70225A3E700040140D4
:1005CC000010024000080140000021100000311012
:1005DC000000321000001110000022100AB101615D
:1005EC0070470904FBE7C36801EA030221EA03012F
:1005FC0041EA0241016170472DE9F341054608B912
:10060C0001203CE00368DB0710D42B689F075DD406
:10061C002B68190700F194802B685A0700F1BE80F3
:10062C00E869002840F02C81002028E08F4C63689A
:10063C0003F00C03042B07D0636803F00C03082BA6
:10064C0009D16368DE0306D523689C03DDD56B688E
:10065C00002BDAD1D4E76B68B3F5803F12D1236855
:10066C0043F480332360FFF765FE06462368980346
:10067C00CBD4FFF75FFE801B6428F7D9032002B0B0
:10068C00BDE8F0819BB9236823F480332360236891
:10069C0023F480232360FFF74DFE0646236899035D
:1006AC00B3D5FFF747FE801B6428F7D9E6E7B3F50F
:1006BC00A02F236803D143F480232360CFE723F4D6
:1006CC0080332360236823F48023CBE7674C636873
:1006DC0013F00C0F07D0636803F00C03082B10D138
:1006EC006368DA030DD423689B0702D52B69012BB1
:1006FC0086D123686A6923F0F80343EAC2032360B6
:10070C0086E72A695A4B6AB101221A60FFF712FE7A
:10071C00064623689F07ECD4FFF70CFE801B0228CB
:10072C00F7D9ABE71A60FFF705FE06462368980772
:10073C007FF56EAFFFF7FEFD801B0228F6D99DE713
:10074C00AA694A4C4B4BDAB101221A60FFF7F2FD51
:10075C000646636A9B070DD54FF4FA52464B1B684D
:10076C00B3FBF2F3019300BF019B5A1E0192002BC5
:10077C00F9D151E7FFF7DEFD801B0228E9D97DE7AF
:10078C001A60FFF7D7FD0646636A9F077FF544AFF3
:10079C00FFF7D0FD801B0228F6D96FE7334CE369D5
:1007AC00D80024D40127E36943F08053E361E36963
:1007BC0003F080530093009B304E3368D90518D555
:1007CC00EB68012B26D1236A43F001032362FFF768
:1007DC00B1FD41F288368046236A9B073FD5002F36
:1007EC003FF41EAFE36923F08053E36118E7002761
:1007FC00E2E7336843F480733360FFF79BFD804678
:10080C003368DA05DCD4FFF795FDA0EB080064280B
:10081C00F6D933E7ABB9236A41F2883823F00103E8
:10082C002362236A23F004032362FFF783FD064649
:10083C00236A9807D3D5FFF77DFD801B4045F7D978
:10084C001CE7052B236A03D143F004032362BAE7A8
:10085C0023F001032362236A23F00403B6E7FFF7B6
:10086C0069FDA0EB0800B042B6D907E700100240C2
:10087C000000424280044242000000200070004010
:10088C002A4B5A681C4602F00C02082A3DD0002361
:10089C00274E022833602BD1FFF74CFD0746236807
:1008AC0099011FD42B6AB3F5803F05D16268A96802
:1008BC0022F400320A436260696A62680B4322F4D4
:1008CC0074121343636001233360FFF733FD054655
:1008DC0023689A013FF5A8AEFFF72CFD401B0228B8
:1008EC00F6D9CBE6FFF726FDC01B0228D7D9C5E603
:1008FC00FFF720FD054623689B017FF595AEFFF7BA
:10090C0019FD401B0228F6D9B8E601283FF4B7AE12
:10091C0058682B6A00F480329A427FF471AE6B6A8D
:10092C0000F47010C01A18BF0120A8E60010024095
:10093C006000424230B5184B87B002AC03F1100591
:10094C00224618685968083303C2AB421446F7D1E3
:10095C0040F201231149ADF804304B6803F00C024E
:10096C00082A17D1C3F3834206A80244DB0312F80A
:10097C00102C0CD54B680A48C3F34043504306AACD
:10098C00134413F8143CB0FBF3F007B030BD05482A
:10099C005043FAE70248F8E75C0B000800100240ED
:1009AC0000127A0000093D002DE9F0410D46044685
:1009BC0010B90120BDE8F081444A136803F0070325
:1009CC008B4228D321688E0730D4CA0743D43F4AC0
:1009DC00136803F00703AB4265D822683C4D12F054
:1009EC00040F6CD1130706D56B68226923F460538E
:1009FC0043EAC2036B60FFF79DFF6B68354AC3F394
:100A0C000313D35CD840344B1860344B1868FFF791
:100A1C004FFC0020CEE7136823F007030B43136051
:100A2C00136803F007038B42C3D1CBE7284B11F0BB
:100A3C00040F1EBF5A6842F4E0625A60080742BFB6
:100A4C005A6842F460525A605A68A06822F0F00268
:100A5C0002435A60B9E762681D4E012A33681AD105
:100A6C0013F4003FA5D0736841F2883823F00303D8
:100A7C0013437360FFF75EFC07467368626803F00C
:100A8C000C03B3EB820FA2D0FFF754FCC01B404504
:100A9C00F3D903208EE7022A02D113F0007FE1E79D
:100AAC0013F0020FDEE7136823F007032B431360E8
:100ABC00136803F00703AB427FF47BAF8DE76B68E1
:100ACC00E16823F4E0630B436B608BE7002002408A
:100ADC00001002406C0B00080000002008000020F1
:100AEC0070B500250C4E0D4CA41BA410A54209D1C9
:100AFC0000F022F800250A4E0A4CA41BA410A542B3
:100B0C0005D170BD56F8253098470135EEE756F8FB
:100B1C00253098470135F2E77C0B00087C0B000868
:100B2C007C0B0008800B000803460244934200D162
:100B3C00704703F8011BF9E7F8B500BFF8BC08BC17
:100B4C009E467047F8B500BFF8BC08BC9E4670477F
:100B5C0002030405060708090A0B0C0D0E0F1010F2
:100B6C000000000000000000010203040607080951
:040B7C00310100083B
:040B80000D0100085B
:0C0B84000024F40001000000100000003C
:04000005080002717C
:00000001FF
